:03000000020ED716
:0C0ED700787FE4F6D8FD75814B020F1EF9
:1008000057656C636F6D65210D0A00506C656173EF
:100810006520696E70757420275345542078202A0E
:100820002A2A2A20585858273B20202078206973EC
:1008300020746865206368616E6E656C206F662049
:1008400050303B0D0A002A2A2A2A20697320746836
:1008500065206672657175656E6379206F662050DC
:10086000574D2C322D32303030487A3B2058585872
:10087000206973206475747920726174696F2C30FB
:100880002D31303025200D0A006572726F72206F95
:100890006363757265642C506C6561736520737455
:1008A0006172742077697468205345542C6C696BAD
:1008B00065275345542030203230303020303930D5
:1008C000270D0A0070776D5F6368616E6E656C203E
:1008D00069733A000D0A006672657175656E637919
:1008E0002069733A00487A200D0A006475747920F3
:1008F000726174696F2069733A0025200D0A0065E2
:1009000072726F72206F6363757265642C506C65D0
:1009100061736520736574206368616E6E656C2019
:100920006F66205030206265747765656E203020D8
:10093000616E6420372C6C696B65275345542030F9
:10094000203230303020303930270D0A0065727285
:100950006F72206F6363757265642C506C65617390
:100960006520736574206672657175656E636520B8
:100970006265747765656E203220616E6420323066
:1009800030302C6C696B6527534554203020323051
:10099000303020303930270D0A006572726F7220B6
:1009A0006F6363757265642C506C65617365207349
:1009B000657420647574795F726174696F20626513
:1009C000747765656E203020616E64203130302C84
:1009D0006C696B652753455420302032303030200D
:1009E000303930270D0A0050574D20726174652050
:1009F000686173206265656E2075706461746564FA
:080A000021200D0A200D0A005F
:10107E000E2D000000000000000000000000000027
:10108E000E3E534554203020323030302031303037
:100A08001210CC7F141210B27BFF7A0879001210F2
:100A1800597BFF7A08790B1210597BFF7A087946BF
:100A28001210593000FDC200C201E52DB53E0BE59C
:100A38002EB53F06E52F6540600B7BFF7A08798964
:100A4800121059D2011210E08F26120F638E228FD6
:100A580023120FF68E248F257BFF7A0879C4121093
:100A680059E5262430FF1210D87BFF7A0879D41272
:100A780010597BFF7A0879D7121059AE22AF237C20
:100A8800037DE8120BC2EF2430FF1210D8AE22AF5C
:100A9800237C007D64120BC27C007D0A120BC2ED20
:100AA8002430FF1210D8AE22AF237C007D0A120B2F
:100AB800C27C007D0A120BC2ED2430FF1210D8AEA2
:100AC80022AF237C007D0A120BC2ED2430FF1210E6
:100AD800D87BFF7A0879E51210597BFF7A0879EB01
:100AE800121059AE24AF257C007D64120BC2EF248E
:100AF80030FF1210D8AE24AF257C007D0A120BC23D
:100B08007C007D0A120BC2ED2430FF1210D8AE24EF
:100B1800AF257C007D0A120BC2ED2430FF1210D8DD
:100B28007BFF7A0879FA121059E526D39407400B0F
:100B38007BFF7A0879FF121059D201D3E52394017B
:100B4800E5229400400BD3E52394D0E52294074096
:100B58000B7BFF7A09794D121059D201D3E5259400
:100B680064E5249400400B7BFF7A09799A121059A6
:100B7800D201300103020A2BAD25AC24AF23AE22EB
:0F0B8800120E107BFF7A0979E7121059020A2B1F
:040E10008C088D09B4
:100E1400C28CD3EF94E8EE9403400E752700752836
:100E240005758CFF758AFB803AD3EF9464EE9400C9
:100E3400400E75270075280A758CFF758AF6802385
:100E4400D3EF940AEE9400400E752700752864755C
:100E54008CFF758A9C800C7527037528E8758CFCBB
:100E6400758A18AB07AA06E4F9F87F407E427D0F25
:100E7400FC120FB28F0D8E0C8D0B8C0AAE27AF288F
:100E8400AB07AA06E4F9F8AF0DAE0C120C538E2989
:100E94008F2AAC08AD09120BB07C007D64120BC222
:100EA4008E2B8F2C74F8252AF52A74FF3529F52901
:100EB400E509AE087803C333CE33CED8F9FF7C00FE
:100EC4007D64120BC2C3E52C9FF52CE52B9EF52BFC
:020ED400D28CBE
:010ED60022F9
:03000B00020CE5FF
:100CE500C0E0C0F0C083C082C0D075D000C000C0D5
:100CF50001C002C003C004C005C006C007AE27AFCF
:100D050028AB07AA06E4C39BFFE49AFE740194008E
:100D1500FDE49400FCE4FB7A01F9F8120FB28F8C24
:100D2500AE27AF28AB07AA06E4C39BFFE49AFE747F
:100D3500019400FDE49400FCE4FB7A01F9F8120F3C
:100D4500B2AF038F8A053DE53D7002053C652C7009
:100D550004E53C652B7044E526B40800503D900D34
:100D65006AF8282873020D82020D86020D8A020D8B
:100D75008E020D92020D96020D9A020D9EC2808082
:100D85001AC2818016C2828012C283800EC28480FC
:100D95000AC2858006C2868002C287C3E53D952AC0
:100DA500E53C9529404A753C00753D00E526B408AB
:100DB50000503D900DBFF8282873020DD7020DDBBA
:100DC500020DDF020DE3020DE7020DEB020DEF024E
:100DD5000DF3D280801AD2818016D2828012D283FE
:100DE500800ED284800AD2858006D2868002D28780
:100DF500D007D006D005D004D003D002D001D00052
:0B0E0500D0D0D082D083D0F0D0E032FB
:0300230002102D9B
:09102D00C0E0C0D075D000C00085
:10103600C2AC309815C298742D2521F8A6990521C1
:0C104600E521B40E05752100D200D2ACEB
:07105200D000D0D0D0E03245
:0510E000E53124D0FF02
:0110E50022E8
:100F6300E53424D0FFE434FFFE7C007D64120BB033
:100F7300AA06AB07E53324D0FFE434FFFE7C037DF0
:100F8300E8120BB0EF2BFBEE3AFAE53524D0FFE481
:100F930034FFFE7C007D0A120BB0EF2BFFEE3AFE0E
:0E0FA300E53624D0FDEC34FFCD2FFFED3EFEF1
:010FB100221D
:100FF600E53924D0FFE434FFFE7C007D0A120BB0F5
:10100600AA06AB07E53824D0FFE434FFFE7D641260
:101016000BB0EF2BFFEE3AFEE53A24D0FDEC34FFA1
:06102600CD2FFFED3EFEA0
:01102C0022A1
:0C10B200E4FEE4FF0FBF64FC0EBEFAF683
:0110BE00220F
:0D10BF00438901E4F58AF58CC28DC28C22B4
:10109F0075985075CADC75CCDC75CBFF75CDFF75B7
:0310AF00C8342220
:0C10CC00D2A9D2ACD2AF12109F0210BF0C
:0810D8008F993099FDC29922A5
:101059008B088A09890AAB08AA09A90A120B9760A1
:1010690013050AE50A7002050914F9120B97FF1214
:0510790010D880E22206
:100EE300020A08E493A3F8E493A34003F68001F213
:100EF30008DFF48029E493A3F85407240CC8C33310
:100F0300C4540F4420C8834004F456800146F6DFDE
:100F1300E4800B010204081020408090107EE47EE0
:100F2300019360BCA3FF543F30E509541FFEE493D3
:100F3300A360010ECF54C025E060A840B8E493A39A
:100F4300FAE493A3F8E493A3C8C582C8CAC583CAC5
:100F5300F0A3C8C582C8CAC583CADFE9DEE780BE7D
:01109E000051
:100B9700BB010689828A83E0225002E722BBFE025C
:090BA700E32289828A83E493228F
:100BB000EF8DF0A4A8F0CF8CF0A428CE8DF0A42E59
:020BC000FE2213
:100BC200BC000BBE0029EF8DF084FFADF022E4CC17
:100BD200F875F008EF2FFFEE33FEEC33FCEE9DECE0
:100BE200984005FCEE9DFE0FD5F0E9E4CEFD22ED26
:100BF200F8F5F0EE8420D21CFEADF075F008EF2F70
:100C0200FFED33FD4007985006D5F0F222C398FD60
:050C12000FD5F0EA22FD
:100C170075F008758200EF2FFFEE33FECD33CDCC94
:100C270033CCC58233C5829BED9AEC99E582984017
:100C37000CF582EE9BFEED9AFDEC99FC0FD5F0D6F4
:100C4700E4CEFBE4CDFAE4CCF9A88222B800C1B91E
:100C57000059BA002DEC8BF084CFCECDFCE5F0CB5C
:100C6700F97818EF2FFFEE33FEED33FDEC33FCEB95
:100C770033FB10D703994004EB99FB0FD8E5E4F950
:100C8700FA227818EF2FFFEE33FEED33FDEC33FC3D
:100C9700C933C910D7059BE99A4007EC9BFCE99A31
:100CA700F90FD8E0E4C9FAE4CCFB2275F010EF2F76
:100CB700FFEE33FEED33FDCC33CCC833C810D70776
:100CC7009BEC9AE899400AED9BFDEC9AFCE899F8B1
:0E0CD7000FD5F0DAE4CDFBE4CCFAE4C8F92244
:100FB200C2D5E830E70FB2D5E4C39BFBE49AFAE46A
:100FC20099F9E498F8EC30E717B2D5120FE8120C51
:100FD20053E4C39BFBE49AFAE499F9E498F880039A
:100FE200120C5330D50DE4C39FFFE49EFEE49DFD39
:040FF200E49CFC225D
:00000001FF
