:03000000020E6F7E
:0C0E6F00787FE4F6D8FD758149020EB6CC
:1008000057656C636F6D65210D0A00506C656173EF
:100810006520696E70757420275345542078202A0E
:100820002A2A2A20585858273B20202078206973EC
:1008300020746865206368616E6E656C206F662049
:1008400050303B0D0A002A2A2A2A20697320746836
:1008500065206672657175656E6379206F662050DC
:10086000574D2C322D32303030487A3B2058585872
:10087000206973206475747920726174696F2C30FB
:100880002D31303025200D0A006572726F72206F95
:100890006363757265642C506C6561736520737455
:1008A0006172742077697468205345542C6C696BAD
:1008B00065275345542030203230303020303930D5
:1008C000270D0A0070776D5F6368616E6E656C203E
:1008D00069733A000D0A006672657175656E637919
:1008E0002069733A00487A200D0A006475747920F3
:1008F000726174696F2069733A0025200D0A0065E2
:1009000072726F72206F6363757265642C506C65D0
:1009100061736520736574206368616E6E656C2019
:100920006F66205030206265747765656E203020D8
:10093000616E6420372C6C696B65275345542030F9
:10094000203230303020303930270D0A0065727285
:100950006F72206F6363757265642C506C65617390
:100960006520736574206672657175656E636520B8
:100970006265747765656E203220616E6420323066
:1009800030302C6C696B6527534554203020323051
:10099000303020303930270D0A006572726F7220B6
:1009A0006F6363757265642C506C65617365207349
:1009B000657420647574795F726174696F20626513
:1009C000747765656E203020616E64203130302C84
:1009D0006C696B652753455420302032303030200D
:1009E000303930270D0A0050574D20726174652050
:1009F000686173206265656E2075706461746564FA
:080A000021200D0A200D0A005F
:101016000E2B000000000000000000000000000091
:101026000E3C5345542030203230303020313030A1
:100A08001210687F1412105B7BFF7A087900120FAE
:100A1800F17BFF7A08790B120FF17BFF7A08794690
:100A2800120FF13000FDC200C201E52BB53C0BE509
:100A38002CB53D06E52D653E600B7BFF7A0879896C
:100A4800120FF1D20112107C8F26120EFB8E228F0C
:100A580023120F8E8E248F257BFF7A0879C4120FFC
:100A6800F1E5262430FF1210747BFF7A0879D4123E
:100A78000FF17BFF7A0879D7120FF1AE22AF237CF2
:100A8800037DE8120BC2EF2430FF121074AE22AFC0
:100A9800237C007D64120BC27C007D0A120BC2ED20
:100AA8002430FF121074AE22AF237C007D0A120B93
:100AB800C27C007D0A120BC2ED2430FF121074AE06
:100AC80022AF237C007D0A120BC2ED2430FF1210E6
:100AD800747BFF7A0879E5120FF17BFF7A0879EBCE
:100AE800120FF1AE24AF257C007D64120BC2EF24F7
:100AF80030FF121074AE24AF257C007D0A120BC2A1
:100B08007C007D0A120BC2ED2430FF121074AE2453
:100B1800AF257C007D0A120BC2ED2430FF12107441
:100B28007BFF7A0879FA120FF1E526D39407400B78
:100B38007BFF7A0879FF120FF1D201D3E5239401E4
:100B4800E5229400400BD3E52394D0E52294074096
:100B58000B7BFF7A09794D120FF1D201D3E5259469
:100B680064E5249400400B7BFF7A09799A120FF10F
:100B7800D201300103020A2BAD25AC24AF23AE22EB
:0F0B8800120CE57BFF7A0979E7120FF1020A2BB5
:040CE5008C088D09E1
:100CE900C28CD3EF94E8EE9403400E750E00750F95
:100CF90005758CFF758AFB803AD3EF9464EE9400F6
:100D0900400E750E00750F0A758CFF758AF68023E3
:100D1900D3EF940AEE9400400E750E00750F6475BA
:100D29008CFF758A9C800C750E03750FE8758CFC19
:100D3900758A18AB07AA06E4F9F87F407E427D0F51
:100D4900FC120F4A8F0D8E0C8D0B8C0AAE0EAF0F55
:100D5900AB07AA06E4F9F8AF0DAE0C120C538E27B7
:100D69008F28AC08AD09120BB07C007D64120BC250
:100D79008E298F2A74F82528F52874FF3527F52739
:100D8900E509AE087803C333CE33CED8F9FF7C002A
:100D99007D64120BC2C3E52A9FF52AE5299EF52930
:020DA900D28CEA
:010DAB002225
:03000B00020DAC37
:100DAC00C0E0C083C082C0D075D000C000053BE558
:100DBC003B7002053A652A7004E53A65297044E5F2
:100DCC0026B40800503D900DD9F8282873020DF177
:100DDC00020DF5020DF9020DFD020E01020E0502C7
:100DEC000E09020E0DC280801AC2818016C282804A
:100DFC0012C283800EC284800AC2858006C286809D
:100E0C0002C287C3E53B9528E53A9527404A753AD7
:100E1C0000753B00E526B40800503D900E2EF828D6
:100E2C002873020E46020E4A020E4E020E52020E9B
:100E3C0056020E5A020E5E020E62D280801AD281C7
:100E4C008016D2828012D283800ED284800AD28500
:100E5C008006D2868002D287D000D0D0D082D083B8
:030E6C00D0E032A1
:03002300020FC504
:090FC500C0E0C0D075D000C000EE
:100FCE00C2AC309815C298742B2521F8A69905212C
:0C0FDE00E521B40E05752100D200D2AC54
:070FEA00D000D0D0D0E032AE
:05107C00E52F24D0FF68
:01108100224C
:100EFB00E53224D0FFE434FFFE7C007D64120BB09E
:100F0B00AA06AB07E53124D0FFE434FFFE7C037D5A
:100F1B00E8120BB0EF2BFBEE3AFAE53324D0FFE4EB
:100F2B0034FFFE7C007D0A120BB0EF2BFFEE3AFE76
:0E0F3B00E53424D0FDEC34FFCD2FFFED3EFE5B
:010F49002285
:100F8E00E53724D0FFE434FFFE7C007D0A120BB05F
:100F9E00AA06AB07E53624D0FFE434FFFE7D6412CB
:100FAE000BB0EF2BFFEE3AFEE53824D0FDEC34FF0C
:060FBE00CD2FFFED3EFE09
:010FC400220A
:0C105B00E4FEE4FF0FBF64FC0EBEFAF6DA
:011067002266
:10104A00538E7F5389F0E4F58A758C4CC28DC28C1D
:01105A002273
:10103700759850438E01538EFB75D7E875D6FF43DD
:031047008E1022E6
:0C106800D2A9D2ACD2AF12103702104A4D
:081074008F993099FDC2992209
:100FF1008B088A09890AAB08AA09A90A120B97600A
:1010010013050AE50A7002050914F9120B97FF127C
:05101100107480E222D2
:100E7B00020A08E493A3F8E493A34003F68001F27B
:100E8B0008DFF48029E493A3F85407240CC8C33378
:100E9B00C4540F4420C8834004F456800146F6DF47
:100EAB00E4800B0102040810204080901016E47EB1
:100EBB00019360BCA3FF543F30E509541FFEE4933C
:100ECB00A360010ECF54C025E060A840B8E493A303
:100EDB00FAE493A3F8E493A3C8C582C8CAC583CA2E
:100EEB00F0A3C8C582C8CAC583CADFE9DEE780BEE6
:0110360000B9
:100B9700BB010689828A83E0225002E722BBFE025C
:090BA700E32289828A83E493228F
:100BB000EF8DF0A4A8F0CF8CF0A428CE8DF0A42E59
:020BC000FE2213
:100BC200BC000BBE0029EF8DF084FFADF022E4CC17
:100BD200F875F008EF2FFFEE33FEEC33FCEE9DECE0
:100BE200984005FCEE9DFE0FD5F0E9E4CEFD22ED26
:100BF200F8F5F0EE8420D21CFEADF075F008EF2F70
:100C0200FFED33FD4007985006D5F0F222C398FD60
:050C12000FD5F0EA22FD
:100C170075F008758200EF2FFFEE33FECD33CDCC94
:100C270033CCC58233C5829BED9AEC99E582984017
:100C37000CF582EE9BFEED9AFDEC99FC0FD5F0D6F4
:100C4700E4CEFBE4CDFAE4CCF9A88222B800C1B91E
:100C57000059BA002DEC8BF084CFCECDFCE5F0CB5C
:100C6700F97818EF2FFFEE33FEED33FDEC33FCEB95
:100C770033FB10D703994004EB99FB0FD8E5E4F950
:100C8700FA227818EF2FFFEE33FEED33FDEC33FC3D
:100C9700C933C910D7059BE99A4007EC9BFCE99A31
:100CA700F90FD8E0E4C9FAE4CCFB2275F010EF2F76
:100CB700FFEE33FEED33FDCC33CCC833C810D70776
:100CC7009BEC9AE899400AED9BFDEC9AFCE899F8B1
:0E0CD7000FD5F0DAE4CDFBE4CCFAE4C8F92244
:100F4A00C2D5E830E70FB2D5E4C39BFBE49AFAE4D2
:100F5A0099F9E498F8EC30E717B2D5120F80120C21
:100F6A0053E4C39BFBE49AFAE499F9E498F8800302
:100F7A00120C5330D50DE4C39FFFE49EFEE49DFDA1
:040F8A00E49CFC22C5
:00000001FF
